:1040000038C0002025430000214300002143000068
:104010002143000021430000214300000000000074
:10402000000000000000000000000000214300002C
:104030002143000000000000214300002143000054
:1040400021430000214300002143000021430000E0
:1040500021430000214300002143000021430000D0
:1040600021430000214300002143000021430000C0
:1040700021430000214300002143000021430000B0
:1040800021430000214300002143000021430000A0
:104090002143000021430000214300002143000090
:1040A0002143000021430000214300002143000080
:1040B00021430000A5420000D1420000214300003E
:1040C0002143000021430000214300002143000060
:1040D0002143000021430000214300002143000050
:1040E0002143000021430000214300002143000040
:1040F00000000000E94200002143000021430000CD
:10410000214300002143000021430000214300001F
:10411000214300002143000021430000214300000F
:1041200021430000214300002143000021430000FF
:1041300021430000214300002143000021430000EF
:1041400021430000214300002143000021430000DF
:104150002143000021430000000000000000000097
:10416000000000000000000000000000000000004F
:10417000000000000000000000000000000000003F
:10418000214300002143000021430000214300009F
:1041900000000000214300002143000021430000F3
:1041A000214300002143000021430000214300007F
:1041B000214300002143000021430000214300006F
:1041C000214300002143000021430000214300005F
:1041D000214300002143000021430000214300004F
:1041E000214300002143000021430000214300003F
:1041F000214300002143000021430000214300002F
:1042000021430000000000000000000021430000E6
:10421000214300002143000021430000214300000E
:1042200021430000214300002143000021430000FE
:1042300021430000214300002143000021430000EE
:1042400021430000214300002143000021430000DE
:1042500021430000214300002143000021430000CE
:104260000000000010B5054C237833B9044B13B19E
:104270000448AFF300800123237010BD0400002028
:10428000000000002C46000008B5034B1BB1034999
:104290000348AFF3008008BD0000000008000020C4
:1042A0002C460000094B186803691A8AD20704D506
:1042B00001221A82036843B118471A8A92B222B1C6
:1042C00040F25E221A824368F5E770472000002022
:1042D000004B1847A5420000014B024A1A60704784
:1042E00000000020006CDC020B4A937882B0DBB245
:1042F0000193019B990705D5084B1B6813B15068C2
:1043000002B01847019BDB0704D5044B5B680BB177
:10431000014AF4E702B07047000002412400002087
:10432000FEE7000008B5144A144B9A4203D0144922
:10433000043A8B4218D3134B134A0021934218D3EB
:10434000124A134B22F07F029A60D3F8882042F47D
:104350007002C3F88820BFF34F8FBFF36F8F0D4BF0
:1043600098470D4B9847FEE752F8040F43F8040BAB
:10437000DFE743F8041BE1E72C46000000000020C3
:104380000400002004000020340000200040000051
:1043900000ED00E0C54500003545000082B0012376
:1043A0000193019B012B01DD02B07047019B01339A
:1043B000F6E7000008B5034A03498847013AFCD1F3
:1043C00008BD00BFD0A720009D43000010B5034BDF
:1043D0009847034BBDE81040184700BF85450000D3
:1043E0009545000010B5034B9847034BBDE81040BE
:1043F000184700BFA5450000B545000010B5054BA6
:10440000054C9847A047054B98472346BDE8104008
:10441000184700BFCD430000B5430000E54300004E
:1044200038B5034D0F24A847013CFCD138BD00BF6F
:10443000FD430000304A13889BB213802F4B1A783B
:1044400042F001021A705A68D007FCD44FF482720D
:10445000DA625A689106FCD44FF4827227491A62D4
:104460004A6812F00402FBD1254B1A77254A9A625A
:1044700093F82C2012F01002FAD183F82020204B60
:10448000194693F82C205207FBD41A7F42F00202FF
:104490001A7791F82C309B07FBD49823184A81F89F
:1044A00020301369D805FCD5144B174A5A635A6853
:1044B0001106FCD44522C3F88420114B3B225A63D9
:1044C000DA6B5207FCD44FF400629A63022283F83D
:1044D00030200B4B1A6C9007FCD51A6CD107F9D51C
:1044E000064B40F207321A625A685207FCD4074B57
:1044F00001225A71704700BF00400041001C00407B
:1045000000100040000001040601180000080040EF
:1045100008B5044B044D054C9847054B9847A847F0
:10452000A047FCE7CD430000FD430000B543000079
:104530002144000008B5044B9847044B9847044BAE
:104540009847044B984700BFD9420000354400000B
:104550005945000011450000074B08494FF400027F
:104560009A604FF080429A6299624FF4803199606C
:104570009A62034A9A62704700800041800000C03E
:10458000010000C0024B4FF480329A61704700BFB7
:1045900000800041024B4FF400029A61704700BF57
:1045A00000800041024B4FF480325A61704700BFD7
:1045B00000800041024B4FF400025A61704700BF77
:1045C0000080004170B50D4E0D4CA41BA4100025B9
:1045D000A54209D10B4E0C4C00F018F8A41BA410F6
:1045E0000025A54205D170BD56F825309847013504
:1045F000EEE756F8253098470135F2E718460000F7
:1046000018460000184600001C460000F8B500BF20
:10461000F8BC08BC9E46704789420000F8B500BF50
:0C462000F8BC08BC9E46704765420000D4
:04462C00006CDC0240
:0400000300004000B9
:00000001FF
